:1000000001308A00D8290000831809284330840071
:100010008313F701F801F901FA01C301C401C50115
:10002000C6014208410440043F0403194728203018
:10003000C7000310BB0DBC0DBD0DBE0DC30DC40D1F
:10004000C50DC60D42084602031D30284108450271
:10005000031D302840084402031D30283F08430296
:10006000031C41283F08C3024008031C400FC40280
:100070004108031C410FC5024208031C420FC6027F
:100080000314F70DF80DF90DFA0DC70B19284308E5
:100090008000840A44088000840A45088000840A9D
:1000A000460880000800F801F901F701FA01360856
:1000B000031D5D283508031977281030B700031099
:1000C000B30DB40DF70DFA0D36087A02031D6A2838
:1000D00035087702031C73283508F702031CFA035E
:1000E0003608FA020314F80DF90DB70B5F28080063
:1000F000383084008313000803198C280530F80079
:10010000F701F70B8128F80B80282E30F700F70B4A
:1001100087288A28800B7E2808000330B802031C39
:100120009B28383084008313000803199B289928E2
:100130000000800B98280800B70134083702031824
:10014000A628FA30B8007820B70A9D283308B800EE
:100150007820B701360837020318B328FA30B80000
:100160008D20B70AAA283508B8008D200800831012
:10017000BE010F30BD004230BC004030BB00C201A8
:10018000C1012208C0002108BF0004207A08B6007F
:100190007908B5007808B4007708B3000310B60CEE
:1001A000B50CB40CB30C0A303302A5003408A60019
:1001B0000030031C0130A6023508A7000030031CE4
:1001C0000130A7023608A8000030031C0130A80245
:1001D00083102808BE002708BD002608BC0025089B
:1001E000BB00C201C1010330C000E830BF000420E1
:1001F0007808AA007708A9002A08B4002908B300E3
:10020000B601FA30B50053207808AE002A08B400D1
:100210002908B300B601FA30B50053207708AF00C3
:1002200083143330840083132808BE002708BD00E0
:100230002608BC002508BB00C201C1010330C00074
:10024000E830BF0004203408AC003308AB002C08B1
:10025000B4002B08B300B601FA30B500532078087B
:10026000AD002C08B4002B08B300B601FA30B5007D
:1002700053207708B000B601B5012408B400230864
:10028000B3003608BA003508B9003408B80033089E
:10029000B700BE01BD010330BC00E830BB00203018
:1002A000C300BF01C001C101C2013A08FA00390808
:1002B000F9003808F8003708F7000310771C6E299A
:1002C0003B08BF073C0803183C0FC0073D08031854
:1002D0003D0FC1073E0803183E0FC207C20CC10CF8
:1002E000C00CBF0CFA0CF90CF80CF70CC30B5D2911
:1002F0007A08B6007908B5007808B4007708B3002A
:100300008310BE010F30BD004230BC004030BB0046
:10031000C201C1012208C0002108BF0004207A08E0
:10032000BA007908B9007808B8007708B7008310D8
:100330003608BE003508BD003408BC003308BB00D9
:100340007A08C2007908C1007808C0007708BF00A9
:1003500004207808B2007708B1003208FA003108AA
:100360000319B203B103B3007A08B400B308031D44
:10037000BC29B4080319D7292F08B3002E08B400EC
:100380003008B5002D08B6009C2083160612831293
:1003900006162F08B3002E08B4003008B5002D084B
:1003A000B6009C208316061283120612AD2908009F
:1003B00003081F39830083161F149F141F159F11F4
:1003C00007309C00831305148312051CF0290730A5
:1003D000A2006C30A100A401C830A300B720FD2901
:1003E000831685148312851CFD290B30A20054301E
:1003F000A100A4019630A300B7208316E32963006F
:02400E00323F3F
:00000001FF
;PIC16F877A
;CRC=CEB3  CREATED="11-mai-19 11:48"
